:020000040800F2
:1000000070060020350200083D0200083F0200088B
:1000100041020008430200084502000800000000F9
:10002000000000000000000000000000470200087F
:1000300049020008000000004B0200084D020008C1
:100040004F0200084F0200084F0200084F0200084C
:100050004F0200084F0200084F0200084F0200083C
:100060004F0200084F0200084F0200084F0200082C
:100070004F0200084F0200084F0200084F0200081C
:100080004F0200084F0200084F0200080000000065
:100090000000000000000000000000004F02000807
:1000A0004F0200084F0200084F0200084F020008EC
:1000B0004F0200084F0200084F0200084F020008DC
:1000C0004F0200084F0200084F0200084F020008CC
:1000D0004F0200084F0200084F0200080000000015
:1000E0004F0200084F0200084F0200080000000005
:1000F0000000000000000000000000004F020008A7
:10010000000000004F0200084F0200084F020008E4
:1001100000000000000000000000000000000000DF
:100120004F0200084F0200084F0200084F0200086B
:100130004F02000800000000000000000000000066
:100140000000000000000000000000004F02000856
:100150004F0200084F0200084F0200084F0200083B
:100160004F0200084F0200080000000000000000DD
:10017000000000000000000000000000000000007F
:10018000000000004F020008000000000000000016
:100190004F02000800F002F800F03CF80AA090E8D6
:1001A000000C82448344AAF10107DA4501D100F032
:1001B00031F8AFF2090EBAE80F0013F0010F18BFC3
:1001C000FB1A43F00103184780040000A00400005C
:1001D000103A24BF78C878C1FAD8520724BF30C873
:1001E00030C144BF04680C60704700000023002445
:1001F00000250026103A28BF78C1FBD8520728BF37
:1002000030C148BF0B6070471FB500F010FA1FBD2A
:1002100010B510BD00F031F81146FFF7F5FF00F002
:10022000B9F900F04FF803B4FFF7F2FF03BC00F098
:1002300057F800000948804709480047FEE7FEE7F5
:10024000FEE7FEE7FEE7FEE7FEE7FEE7FEE7FEE786
:1002500004480549054A064B70470000810500081F
:100260009501000870000020700600207002002038
:1002700070020020704770477047754600F02CF8F8
:10028000AE4605006946534620F00700854618B083
:1002900020B5FFF7DDFFBDE820404FF000064FF02E
:1002A00000074FF000084FF0000BAC46ACE8C00967
:1002B000ACE8C009ACE8C009ACE8C00921F007010E
:1002C0008D46704710B50446AFF300802046BDE868
:1002D0001040FFF7A8BF000000487047080000204A
:1002E00001491820ABBEFEE726000200704700005F
:1002F00080B540F2040CC2F2000CDCF800E00122F0
:10030000BEF1010F08BF02224FF480736FF080002E
:1003100008BF802308BF6FF48070CCF8002014223F
:10032000C4F20202D2F800C04FF4007143EA0C0399
:1003300013601368BEF1010F00EA030008BF4FF419
:100340008061106010686FF4806340EA0100106003
:10035000106808BF6FF400731840106080BD000083
:1003600070B581B00090009801284CDB40F2040188
:10037000C2F2000140F210400A6840F2680140F207
:100380006C0EC4F202000023C2F20001C2F2000EA1
:10039000009C012C28DB002404E000BF009D0134F8
:1003A000AC4221DA0568ED0709D0012A07DB0D68A8
:1003B00001350D600668F607FCD1022D1CD00568DA
:1003C000AD07EBD5DEF80060751CCEF8005000BF1D
:1003D0000568AD07FCD426F00105022DDED101240D
:1003E0000025B4461DB911E00524012575B1009C16
:1003F0000133A342CCDB08E000254FF0010C0124BF
:10040000002DF4D102E0022400E00224A01E18BF57
:10041000604601B070BD000070B540F25230FFF789
:100420009FFF40F204050446C2F2000580B9286827
:1004300001280DDB40F20000C2F2000001684A1EF4
:10044000026019B909210160FFF752FF00F054F86A
:100450001426012CC4F2020622D1286801281FDBD1
:1004600040F26800C2F20000002101600120286013
:100470003068092140F480703060306820F08000DE
:100480003060306840F400703060306820F4806084
:10049000306040F20000C2F20000016000F02CF871
:1004A000032C0AD0022C18BF70BD28684042286077
:1004B000306820F40060306070BD40F26C002A6843
:1004C000C2F200000021016050422860306840F410
:1004D0000060306040F20000C2F2000001684A1E75
:1004E000026011B100F008F870BD09210160FFF74A
:1004F000FFFE00F001F870BD80B540F20000C2F2CE
:1005000000000368092B88BF80BD40F2140CC4F2C0
:10051000020C6FF07F016FF03F0E4022DFE803F026
:100520002405090D1115191D2A216FF0060E7922D7
:100530001AE06FF05B0E242216E06FF04F0E3022AF
:1005400012E06FF0660E19220EE06FF06D0E1222AF
:100550000AE06FF07D0E022206E06FF0070E7822AF
:1005600002E06FF06F0E1022DCF8000071461043BD
:10057000CCF80000DCF800000840CCF8000080BD9A
:100580004EF68850CEF20000016841F4700101601F
:100590007047000043F63000C4F2020001681424E2
:1005A00041F0010101600168C4F2020441F002015E
:1005B000016045F25551C0F2550144F8141CD4F8BD
:1005C000EC1321F00F01C4F8EC1340F20C41C4F21B
:1005D00002010A6842F002020A600A6822F001027F
:1005E0000A600A6842F008020A600A6822F00402FF
:1005F0000A60416941F480414161FFF77DFF206855
:1006000040F400702060206820F480602060206842
:1006100040F480702060206820F080002060206816
:1006200040F40060206000BFFFF7F6FEFCE7F1EE4B
:10063000100A4FF6FF71C0F2C03120EA010040F00D
:100640004070E1EE100A70476806000800000020C4
:1006500008000000D0010008700600080800002013
:1006600068060000EC01000809000000010000001D
:0400000508000235B8
:00000001FF
